:100000000C948F000C94B7000C94B7000C94B700BC
:100010000C94B7000C94B7000C94B7000C94B70084
:100020000C94B7000C94B7000C94B7000C94B70074
:100030000C94B7000C94B7000C94B7000C94B70064
:100040000C9412070C94B7000C945E040C9490046A
:100050000C94B7000C94B7000C94B7000C94B70044
:100060000C94B7000C94B70008000000BE9224491D
:10007000123EABAAAA2ABECDCCCC4C3E00000080DA
:10008000BEABAAAAAA3E00000000BF000000803F4D
:100090000000000000084178D3BB4387D1133D190D
:1000A0000E3CC3BD4282AD2B3E68EC8276BED98F3A
:1000B000E1A93E4C80EFFFBE01C4FF7F3F0000007E
:1000C0000000000000080002010000030407000017
:1000D000000000000000010204081020408001021E
:1000E000040810200102040810200404040404047D
:1000F00004040202020202020303030303030000DA
:100100000000230026002900000000002500280030
:100110002B0000000000240027002A00C004112446
:100120001FBECFEFD8E0DEBFCDBF11E0A0E0B1E051
:10013000EEE8F6E102C005900D92A83EB107D9F7AE
:1001400022E0A8EEB1E001C01D92AB39B207E1F7A1
:1001500011E0CEE1D1E004C02297FE010E94410BE4
:10016000CC31D107C9F70E9403070C94450B0C94BE
:10017000000026E040E052EC61E070E085EF91E0A5
:100180000E94FC0360E071E085EF91E00E944E0563
:1001900062E171E085EF91E00E94410564E271E067
:1001A00085EF91E00E944E0585EF91E00E944A059F
:1001B0006BE271E085EF91E00C944E054F925F92F7
:1001C0006F927F928F929F92AF92BF92CF92DF9267
:1001D000EF92FF926B017C0149015A0160ED77E0DB
:1001E00080E090E00E947F072AE037ED43E25CE385
:1001F000C501B4010E94830A0E94430A4B015C01BD
:1002000022E03BE24AE851E4C701B6010E94830ABA
:100210002B013C0123E333EB4DE653E4C701B60168
:100220000E9487089B01AC01C301B2010E94EF0844
:10023000A50194010E9487086B017C0123E333EB45
:100240004DE653E40E94830A4B015C01A70196012D
:1002500062E07BE28AE891E40E9486089B01AC019F
:10026000C501B4010E94EF08FF90EF90DF90CF909E
:10027000BF90AF909F908F907F906F905F904F90C6
:10028000089567E871E085EF91E00E94410562E022
:1002900088EE91E00E94B9028F3F51F0882329F047
:1002A0008E3F49F466EA71E008C060E971E005C07C
:1002B00065E971E002C067EB71E085EF91E00E94B3
:1002C00041054091E8015091E9016091EA01709186
:1002D000EB0122E030E085EF91E00E94EE0662E95A
:1002E00071E085EF91E00E9441054091EC01509151
:1002F000ED016091EE017091EF0122E030E085EFB9
:1003000091E00E94EE0662E971E085EF91E00E94C3
:10031000410526E636E646EE5FE36091EC0170911A
:10032000ED018091EE019091EF010E94830A20E09F
:1003300030E040E052E40E948708AB01BC0122E0BB
:1003400030E085EF91E00E94EE0662E971E085EF12
:1003500091E00E94410523E333E948E853E46091CA
:10036000EC017091ED018091EE019091EF010E94FE
:100370008708AB01BC0122E030E085EF91E00E94EC
:10038000EE0662E971E085EF91E00E94410520915F
:10039000E8013091E9014091EA015091EB0160914F
:1003A000EC017091ED018091EE019091EF010E94BE
:1003B000DE0026E636E646EE5FE30E94830A20E092
:1003C00030E040E052E40E948708AB01BC0122E02B
:1003D00030E085EF91E00E94F00660ED77E080E08C
:1003E00090E00C947F074F925F926F927F928F9272
:1003F0009F92AF92BF92CF92DF92EF92FF920F93B4
:100400001F93CF93DF9300D0CDB7DEB77C01D62EFC
:1004100070E0FB01EA52FF4FC490FB01E651FF4F31
:10042000E491F0E0EE0FFF1FE250FF4F4590549033
:1004300061E08D2D2A8349830E94160860E08D2D8E
:100440000E944F0888EE93E04981BC01469FC0019D
:10045000479F900D11240E94A70761E08D2D0E94F7
:100460004F0860E08D2D0E94160880E293E02A81FB
:10047000F20130813C2121F00197D1F78DEF66C068
:1004800080E991E0F20130813C2121F40197D1F71C
:100490008CEF5CC080E991E0F20130813C2121F0D9
:1004A0000197D1F78BEF52C0F8E2BF2EA0E9B1E07F
:1004B00040E050E080E991E060E0912C812C10E870
:1004C000612E7B2C721A00E911E020E030E0F2018D
:1004D000A080AC2051F5662341F17B1490F4A8175D
:1004E000B90708F4CD01B901A801481B590B6109EE
:1004F0007109E2E07595679557954795EA95D1F7AB
:1005000007C0BC01641B750B6A177B0708F09628AF
:10051000669441F4F701E80DF11D90868394912CC7
:1005200060E8662EBA94A0E9B1E0119771F0BB20A3
:1005300011F06A2DCCCF61E08D2D0E94160861E08C
:100540008D2D0E944F0880E001C08EEF0F900F901C
:10055000DF91CF911F910F91FF90EF90DF90CF909F
:10056000BF90AF909F908F907F906F905F904F90D3
:100570000895CF92DF92EF92FF920F931F93CF9344
:10058000DF93EC0126E041E00E94F301E82E18859C
:1005900013701887CA840C2D03780A87F984612F99
:1005A00070E0762F66276F0D711D882777FD809587
:1005B000982F0E948A092DEC3CEC4CEC5DE30E94E4
:1005C000830A688379838A839B83DB846C2D6370C1
:1005D00070E0762F66276D0D711D882777FD809559
:1005E000982F0E948A092DEC3CEC4CEC5DE30E94B4
:1005F000830A07FD05C06C837D838E839F8307C0BC
:10060000DC01CB01B0588C839D83AE83BF83FD0C8E
:10061000F10EF00E8C858F1511F08FEF01C08E2D2D
:10062000DF91CF911F910F91FF90EF90DF90CF90CE
:100630000895FC01818D228D90E0805C9F4F821B8C
:1006400091098F7399270895FC01918D828D9817D8
:1006500031F0828DE80FF11D858D90E008958FEFC8
:100660009FEF0895FC01918D828D981761F0828D26
:10067000DF01A80FB11D5D968C91928D9F5F9F73D6
:10068000928F90E008958FEF9FEF089586EB94E0AE
:10069000892B49F080E090E0892B29F00E94B60474
:1006A00081110C9400000895FC01848DDF01A80FD6
:1006B000B11DA35ABF4F2C91848D90E001968F738A
:1006C0009927848FA689B7892C93A089B1898C91A9
:1006D00080648C93938D848D981306C00288F3896F
:1006E000E02D80818F7D80830895CF93DF93EC018F
:1006F000888D8823C9F0EA89FB89808185FD05C042
:10070000A889B9898C9186FD0FC00FB607FCF5CF7B
:10071000808185FFF2CFA889B9898C9185FFEDCFC3
:10072000CE010E945403E7CFDF91CF910895CF927D
:10073000DF92FF920F931F93CF93DF931F92CDB75A
:10074000DEB76C0181E0D60158968C9358975B9682
:100750009C915B975C968C915C97981307C0509620
:10076000ED91FC915197808185FD2EC0F601038D9E
:1007700010E00F5F1F4F0F731127F02EF601848DCD
:10078000F81211C00FB607FCF9CFD6015096ED91C3
:10079000FC915197808185FFF1CFC60169830E944A
:1007A00054036981EBCF838DE80FF11DE35AFF4FAE
:1007B0006083D6015B960C935B975296ED91FC910A
:1007C0005397808180620CC0D6015696ED91FC91C2
:1007D000579760835096ED91FC915197808180648A
:1007E000808381E090E00F90DF91CF911F910F9176
:1007F000FF90DF90CF900895BF92CF92DF92EF925B
:10080000FF92CF93DF93EC016A017B01B22EE8895E
:10081000F98982E08083411581EE580761057105F1
:10082000A1F060E079E08DE390E0A70196010E94DD
:100830001D0B2150310941095109569547953795AE
:100840002795211580E1380798F0E889F989108209
:1008500060E874E88EE190E0A70196010E941D0B0C
:1008600021503109410951095695479537952795EA
:10087000EC85FD853083EE85FF852083188EEC891D
:10088000FD89B082EA89FB89808180618083EA8961
:10089000FB89808188608083EA89FB898081806808
:1008A0008083EA89FB8980818F7D8083DF91CF916E
:1008B000FF90EF90DF90CF90BF9008951F920F921E
:1008C0000FB60F9211242F938F939F93EF93FF9363
:1008D000E0910502F09106028081E0910B02F09117
:1008E0000C0282FD12C0908180910E028F5F8F7387
:1008F00020910F02821751F0E0910E02F0E0EB50D0
:10090000FE4F958F80930E0201C08081FF91EF9181
:100910009F918F912F910F900FBE0F901F90189560
:100920001F920F920FB60F9211242F933F934F9364
:100930005F936F937F938F939F93AF93BF93EF9347
:10094000FF9385EF91E00E945403FF91EF91BF91D7
:10095000AF919F918F917F916F915F914F913F9157
:100960002F910F900FBE0F901F90189585EF91E07B
:100970000E94190321E0892B09F420E0822F0895B9
:100980001092F8011092F70188EE93E0A0E0B0E039
:100990008093F9019093FA01A093FB01B093FC01BD
:1009A0008BEC91E09093F6018093F50185EC90E05B
:1009B000909302028093010284EC90E090930402F1
:1009C0008093030280EC90E09093060280930502EE
:1009D00081EC90E0909308028093070282EC90E013
:1009E00090930A028093090286EC90E090930C02A7
:1009F00080930B0210920E0210920F0210921002BE
:100A0000109211020895CF92DF92EF92FF920F930E
:100A10001F93CF93DF936C017A01EB01E60EF71E73
:100A200000E010E0CE15DF0561F06991D601ED918F
:100A3000FC910190F081E02DC6010995080F191F66
:100A4000F1CFC801DF91CF911F910F91FF90EF90EF
:100A5000DF90CF9008956115710581F0DB010D9055
:100A60000020E9F7AD0141505109461B570BDC014D
:100A7000ED91FC910280F381E02D099480E090E0FB
:100A800008950C942B05DC01ED91FC910190F0810F
:100A9000E02D099467ED71E00C942B050F931F93E3
:100AA000CF93DF93EC010E942B058C01CE010E94B5
:100AB0004A05800F911FDF91CF911F910F910895EB
:100AC0008F929F92AF92BF92CF92DF92EF92FF925E
:100AD0000F931F93CF93DF93CDB7DEB7A1970FB6D8
:100AE000F894DEBF0FBECDBF7C01C42EE52FCB0135
:100AF000D22E19A221E02D1510F02AE0D22E8E015F
:100B00000F5D1F4F8D2C912CA12CB12C6C2D7E2FA5
:100B1000A50194010E941D0B8C2DD29E80191124D9
:100B2000015011098A3014F4805D01C0895CF8011C
:100B30008083211531054105510521F0C22EE32F97
:100B4000CA01E4CFB801C7010E942B05A1960FB6D8
:100B5000F894DEBF0FBECDBFDF91CF911F910F91F3
:100B6000FF90EF90DF90CF90BF90AF909F908F90CD
:100B70000895CF92DF92EF92FF920F931F93CF933E
:100B8000DF93EC016A017B012115310579F4E881DD
:100B9000F9810190F081E02D642FDF91CF911F91B9
:100BA0000F91FF90EF90DF90CF9009942A3031059C
:100BB000E9F477FF1AC06DE20E9443058C014427D7
:100BC0005527BA014C195D096E097F092AE0CE014B
:100BD0000E946005800F911FDF91CF911F910F91AF
:100BE000FF90EF90DF90CF9008952AE0B701A60123
:100BF000CE01DF91CF911F910F91FF90EF90DF9089
:100C0000CF900C9460054F925F926F927F928F927B
:100C10009F92AF92BF92CF92DF92EF92FF920F938B
:100C20001F93CF93DF93EC016A017B01B22E9A01EF
:100C3000AB01C701B6010E94E60A882319F06AEDEC
:100C400071E027C026013701E89477F82FEF3FEFD6
:100C50004FE75FE7C301B2010E94E60A81110DC0B0
:100C60002FEF3FEF4FE75FE7C301B2010E94EB08B0
:100C700018161CF46EED71E00CC02FEF3FEF4FE73C
:100C80005FE4C701B6010E943A0A1816ACF462EE9E
:100C900071E0CE01DF91CF911F910F91FF90EF9006
:100CA000DF90CF90BF90AF909F908F907F906F908C
:100CB0005F904F900C942B052FEF3FEF4FE75FECC9
:100CC000C701B6010E94EB0887FDE1CF20E030E0CC
:100CD000A901C701B6010E94EB0887FF0AC06DE2B7
:100CE000CE010E9443058C01F7FAF094F7F8F094D6
:100CF00002C000E010E0A12C60E070E080E09FE323
:100D0000AB1441F020E030E040E251E40E94EF08F3
:100D1000A394F6CF9B01AC01C701B6010E948708DE
:100D20006B017C010E945C092B013C010E94880937
:100D30009B01AC01C701B6010E9486086B017C01D2
:100D40002AE0B301A201CE010E946005080F191F1D
:100D5000BB2039F066EE71E0CE010E942B05080F32
:100D6000191F7B2C772041F120E030E040E251E474
:100D7000C701B6010E94830A6B017C010E945709DA
:100D80004B01AA2497FCA094BA2C2AE030E0B501CC
:100D9000A401CE010E94B905080F191FC501B401B5
:100DA0000E948A099B01AC01C701B6010E94860816
:100DB0006B017C017A94D6CFC801DF91CF911F914E
:100DC0000F91FF90EF90DF90CF90BF90AF909F90EA
:100DD0008F907F906F905F904F9008950C940306D2
:100DE0000F931F93CF93DF93EC010E9403068C01B6
:100DF000CE010E944A05800F911FDF91CF911F9174
:100E00000F91089508950E94B2070E9402070E9460
:100E1000B900C6E4D3E00E9441012097E1F30E94AB
:100E20004603F9CF1F920F920FB60F9211242F9302
:100E30003F938F939F93AF93BF9380919302909131
:100E40009402A0919502B09196023091920223E013
:100E5000230F2D3720F40196A11DB11D05C026E8F2
:100E6000230F0296A11DB11D20939202809393023D
:100E700090939402A0939502B0939602809197026A
:100E800090919802A0919902B0919A020196A11DA9
:100E9000B11D8093970290939802A0939902B0930A
:100EA0009A02BF91AF919F918F913F912F910F9097
:100EB0000FBE0F901F9018953FB7F894809197023E
:100EC00090919802A0919902B0919A0226B5A89BA0
:100ED00005C02F3F19F00196A11DB11D3FBF662728
:100EE000782F892F9A2F620F711D811D911D42E06D
:100EF000660F771F881F991F4A95D1F70895CF92E3
:100F0000DF92EF92FF92CF93DF936B017C010E94FF
:100F10005C07EB01C114D104E104F10489F00E94E3
:100F200085080E945C076C1B7D0B683E734090F344
:100F300081E0C81AD108E108F108C851DC4FEACFB6
:100F4000DF91CF91FF90EF90DF90CF9008958230A6
:100F5000910538F0880F991F880F991F0597019701
:100F6000F1F70895789484B5826084BD84B581607A
:100F700084BD85B5826085BD85B5816085BDEEE6A1
:100F8000F0E0808181608083E1E8F0E01082808180
:100F900082608083808181608083E0E8F0E08081EE
:100FA00081608083E1EBF0E0808184608083E0EB0E
:100FB000F0E0808181608083EAE7F0E080818460F6
:100FC0008083808182608083808181608083808152
:100FD000806880831092C1000895833081F028F4E6
:100FE000813099F08230A1F008958730A9F08830DF
:100FF000B9F08430D1F4809180008F7D03C080915E
:1010000080008F7780938000089584B58F7702C029
:1010100084B58F7D84BD08958091B0008F7703C023
:101020008091B0008F7D8093B0000895CF93DF93BF
:1010300090E0FC01EA52FF4F2491FC01E651FF4F82
:101040008491882349F190E0880F991FFC01EE5E9E
:10105000FE4FA591B491885F9E4FFC01C591D4913C
:101060009FB7611108C0F8948C91209582238C93CE
:10107000888182230AC0623051F4F8948C91322F17
:10108000309583238C938881822B888304C0F894C5
:101090008C91822B8C939FBFDF91CF9108950F93FA
:1010A0001F93CF93DF931F92CDB7DEB7282F30E089
:1010B000F901EE53FF4F8491F901EA52FF4F149169
:1010C000F901E651FF4F04910023C9F0882321F074
:1010D00069830E94ED076981E02FF0E0EE0FFF1FAA
:1010E000E85FFE4FA591B4919FB7F8948C91611180
:1010F00003C01095812301C0812B8C939FBF0F905B
:10110000DF91CF911F910F91089508955058BB27FB
:10111000AA270ED075C166D130F06BD120F031F422
:101120009F3F11F41EF45BC10EF4E095E7FB51C143
:10113000E92F77D180F3BA17620773078407950701
:1011400018F071F49EF58FC10EF4E0950B2EBA2FB6
:10115000A02D0B01B90190010C01CA01A0011124BD
:10116000FF27591B99F0593F50F4503E68F11A1669
:10117000F040A22F232F342F4427585FF3CF4695FA
:1011800037952795A795F0405395C9F77EF41F161C
:10119000BA0B620B730B840BBAF09150A1F0FF0FE6
:1011A000BB1F661F771F881FC2F70EC0BA0F621FD2
:1011B000731F841F48F4879577956795B795F795C2
:1011C0009E3F08F0B3CF9395880F08F09927EE0F54
:1011D000979587950895D9D008F481E008950CD0AB
:1011E0000FC107D140F0FED030F021F45F3F19F07D
:1011F000F0C0511139C1F3C014D198F39923C9F348
:101200005523B1F3951B550BBB27AA27621773070C
:10121000840738F09F5F5F4F220F331F441FAA1FC0
:10122000A9F333D00E2E3AF0E0E830D09150504080
:10123000E695001CCAF729D0FE2F27D0660F771F2E
:10124000881FBB1F261737074807AB07B0E809F010
:10125000BB0B802DBF01FF2793585F4F2AF09E3FA5
:10126000510568F0B6C000C15F3FECF3983EDCF377
:10127000869577956795B795F7959F5FC9F7880F1E
:10128000911D9695879597F90895E1E0660F771F70
:10129000881FBB1F621773078407BA0720F0621B01
:1012A000730B840BBA0BEE1F88F7E095089504D0FA
:1012B0006894B111D9C00895BCD088F09F5790F0C0
:1012C000B92F9927B751A0F0D1F0660F771F881F6B
:1012D000991F1AF0BA95C9F712C0B13081F0C3D086
:1012E000B1E00895C0C0672F782F8827B85F39F024
:1012F000B93FCCF3869577956795B395D9F73EF4CA
:1013000090958095709561957F4F8F4F9F4F089571
:10131000E89409C097FB3EF490958095709561958F
:101320007F4F8F4F9F4F9923A9F0F92F96E9BB2745
:101330009395F695879577956795B795F111F8CFC1
:10134000FAF4BB0F11F460FF1BC06F5F7F4F8F4F2C
:101350009F4F16C0882311F096E911C0772321F022
:101360009EE8872F762F05C0662371F096E8862FBA
:1013700070E060E02AF09A95660F771F881FDAF711
:10138000880F9695879597F90895990F0008550F3E
:10139000AA0BE0E8FEEF16161706E807F907C0F0FB
:1013A00012161306E407F50798F0621B730B840B03
:1013B000950B39F40A2661F0232B242B252B21F4DD
:1013C00008950A2609F4A140A6958FEF811D811D7D
:1013D000089597F99F6780E870E060E008959FEFB7
:1013E00080EC089500240A941616170618060906BC
:1013F000089500240A94121613061406050608958B
:10140000092E0394000C11F4882352F0BB0F40F412
:10141000BF2B11F460FF04C06F5F7F4F8F4F9F4F52
:10142000089557FD9058440F551F59F05F3F71F0D4
:101430004795880F97FB991F61F09F3F79F087953B
:101440000895121613061406551FF2CF4695F1DFC4
:1014500008C0161617061806991FF1CF8695710554
:10146000610508940895E894BB2766277727CB0188
:1014700097F908958ADF08F48FEF08950EF0AAC057
:10148000AECF6894A6CFD5DFC8F39923D1F3C6F3C6
:10149000DF93CF931F930F93FF92C92FDD278823EC
:1014A0002AF02197660F771F881FDAF720E030E0D7
:1014B00040E85FEB9FE3883920F0803E30F02196D2
:1014C0008F7725DEE8E6F0E003C021DEE5E9F0E015
:1014D0008FD08B01BE01EC01FB2E6F577109759502
:1014E000771F880B990B16DF28E132E741E35FE3B2
:1014F00016D0AF2D9801AE01FF900F911F91CF91A3
:10150000DF9116DE7DCF0BD07BCF6CDF28F071DF53
:1015100018F0952309F05DCF62CF1124A5CF81DFAC
:10152000A0F3959FD1F3950F50E0551F629FF001F6
:10153000729FBB27F00DB11D639FAA27F00DB11D4F
:10154000AA1F649F6627B00DA11D661F829F2227D8
:10155000B00DA11D621F739FB00DA11D621F839F5F
:10156000A00D611D221F749F3327A00D611D231F35
:10157000849F600D211D822F762F6A2F11249F5783
:1015800050408AF0E1F088234AF0EE0FFF1FBB1FA6
:10159000661F771F881F91505040A9F79E3F510545
:1015A00070F017CF61CF5F3FECF3983EDCF3869588
:1015B00077956795B795F795E7959F5FC1F7FE2BF0
:1015C000880F911D9695879597F90895DEDE880B13
:1015D000990B08959F3F31F0915020F487957795AE
:1015E0006795B795880F911D9695879597F90895FA
:1015F000DF93CF931F930F93FF92EF92DF927B01C4
:101600008C01689405C0DA2EEF0189DFFE01E894B1
:10161000A5912591359145915591AEF3EF0188DD66
:10162000FE019701A801DA9479F7DF90EF90FF901F
:101630000F911F91CF91DF910895A1E21A2EAA1B5D
:10164000BB1BFD010DC0AA1FBB1FEE1FFF1FA21772
:10165000B307E407F50720F0A21BB30BE40BF50B6F
:10166000661F771F881F991F1A9469F760957095F8
:10167000809590959B01AC01BD01CF010895EE0FBF
:0E168000FF1F0590F491E02D0994F894FFCF20
:10168E0044485420544553542050524F4752414DD4
:10169E0020004C4942524152592056455253494F0F
:1016AE004E3A2000302E312E323100547970652C96
:1016BE00095374617475732C0948756D6964697486
:1016CE0079202825292C0954656D70657261747511
:1016DE007265202843292C0954656D7065726174FA
:1016EE00757265202846292C0954656D70657261E6
:1016FE007475726520284B292C09446577706F69C3
:10170E006E74202846290044485432322C20090099
:10171E004F4B2C0900436865636B73756D206572C2
:10172E00726F722C090054696D65206F7574206597
:10173E0072726F722C0900556E6B6E6F776E20652C
:10174E0072726F722C0900000000009703030519D6
:10175E00033203240375030D0A006E616E00696E79
:08176E0066006F7666002E0094
:00000001FF
